{
  "contractName": "VotingSystem",
  "abi": [
    {
      "inputs": [],
      "stateMutability": "nonpayable",
      "type": "constructor"
    },
    {
      "inputs": [
        {
          "internalType": "uint256",
          "name": "",
          "type": "uint256"
        }
      ],
      "name": "candidates",
      "outputs": [
        {
          "internalType": "uint256",
          "name": "id",
          "type": "uint256"
        },
        {
          "internalType": "string",
          "name": "name",
          "type": "string"
        },
        {
          "internalType": "uint256",
          "name": "voteCount",
          "type": "uint256"
        }
      ],
      "stateMutability": "view",
      "type": "function",
      "constant": true
    },
    {
      "inputs": [],
      "name": "candidatesCount",
      "outputs": [
        {
          "internalType": "uint256",
          "name": "",
          "type": "uint256"
        }
      ],
      "stateMutability": "view",
      "type": "function",
      "constant": true
    },
    {
      "inputs": [],
      "name": "owner",
      "outputs": [
        {
          "internalType": "address",
          "name": "",
          "type": "address"
        }
      ],
      "stateMutability": "view",
      "type": "function",
      "constant": true
    },
    {
      "inputs": [
        {
          "internalType": "address",
          "name": "",
          "type": "address"
        }
      ],
      "name": "voters",
      "outputs": [
        {
          "internalType": "bool",
          "name": "",
          "type": "bool"
        }
      ],
      "stateMutability": "view",
      "type": "function",
      "constant": true
    },
    {
      "inputs": [
        {
          "internalType": "string",
          "name": "_name",
          "type": "string"
        }
      ],
      "name": "addCandidate",
      "outputs": [],
      "stateMutability": "nonpayable",
      "type": "function"
    },
    {
      "inputs": [
        {
          "internalType": "uint256",
          "name": "_candidateId",
          "type": "uint256"
        }
      ],
      "name": "vote",
      "outputs": [],
      "stateMutability": "nonpayable",
      "type": "function"
    }
  ],
  "bytecode": "0x60806040523480156200001157600080fd5b50336000806101000a81548173ffffffffffffffffffffffffffffffffffffffff021916908373ffffffffffffffffffffffffffffffffffffffff160217905550620000986040518060400160405280600b81526020017f43616e6469646174652031000000000000000000000000000000000000000000815250620000e460201b60201c565b620000de6040518060400160405280600b81526020017f43616e6469646174652032000000000000000000000000000000000000000000815250620000e460201b60201c565b62000432565b60008054906101000a900473ffffffffffffffffffffffffffffffffffffffff1673ffffffffffffffffffffffffffffffffffffffff163373ffffffffffffffffffffffffffffffffffffffff161462000175576040517f08c379a00000000000000000000000000000000000000000000000000000000081526004016200016c9062000313565b60405180910390fd5b600360008154809291906200018a9062000386565b9190505550604051806060016040528060035481526020018281526020016000815250600160006003548152602001908152602001600020600082015181600001556020820151816001019080519060200190620001ea929190620001fb565b506040820151816002015590505050565b828054620002099062000350565b90600052602060002090601f0160209004810192826200022d576000855562000279565b82601f106200024857805160ff191683800117855562000279565b8280016001018555821562000279579182015b82811115620002785782518255916020019190600101906200025b565b5b5090506200028891906200028c565b5090565b5b80821115620002a75760008160009055506001016200028d565b5090565b6000620002ba60298362000335565b91507f4f6e6c7920746865206f776e65722063616e20706572666f726d20746869732060008301527f6f7065726174696f6e00000000000000000000000000000000000000000000006020830152604082019050919050565b600060208201905081810360008301526200032e81620002ab565b9050919050565b600082825260208201905092915050565b6000819050919050565b600060028204905060018216806200036957607f821691505b6020821081141562000380576200037f62000403565b5b50919050565b6000620003938262000346565b91507fffffffffffffffffffffffffffffffffffffffffffffffffffffffffffffffff821415620003c957620003c8620003d4565b5b600182019050919050565b7f4e487b7100000000000000000000000000000000000000000000000000000000600052601160045260246000fd5b7f4e487b7100000000000000000000000000000000000000000000000000000000600052602260045260246000fd5b610b3580620004426000396000f3fe608060405234801561001057600080fd5b50600436106100625760003560e01c80630121b93f146100675780632d35a8a2146100835780633477ee2e146100a1578063462e91ec146100d35780638da5cb5b146100ef578063a3ec138d1461010d575b600080fd5b610081600480360381019061007c919061064d565b61013d565b005b61008b6102a2565b6040516100989190610858565b60405180910390f35b6100bb60048036038101906100b6919061064d565b6102a8565b6040516100ca93929190610873565b60405180910390f35b6100ed60048036038101906100e8919061060c565b61035a565b005b6100f761046a565b60405161010491906107c2565b60405180910390f35b610127600480360381019061012291906105e3565b61048e565b60405161013491906107dd565b60405180910390f35b600260003373ffffffffffffffffffffffffffffffffffffffff1673ffffffffffffffffffffffffffffffffffffffff16815260200190815260200160002060009054906101000a900460ff16156101ca576040517f08c379a00000000000000000000000000000000000000000000000000000000081526004016101c1906107f8565b60405180910390fd5b6000811180156101dc57506003548111155b61021b576040517f08c379a000000000000000000000000000000000000000000000000000000000815260040161021290610838565b60405180910390fd5b6001600260003373ffffffffffffffffffffffffffffffffffffffff1673ffffffffffffffffffffffffffffffffffffffff16815260200190815260200160002060006101000a81548160ff02191690831515021790555060016000828152602001908152602001600020600201600081548092919061029a906109ea565b919050555050565b60035481565b60016020528060005260406000206000915090508060000154908060010180546102d1906109b8565b80601f01602080910402602001604051908101604052809291908181526020018280546102fd906109b8565b801561034a5780601f1061031f5761010080835404028352916020019161034a565b820191906000526020600020905b81548152906001019060200180831161032d57829003601f168201915b5050505050908060020154905083565b60008054906101000a900473ffffffffffffffffffffffffffffffffffffffff1673ffffffffffffffffffffffffffffffffffffffff163373ffffffffffffffffffffffffffffffffffffffff16146103e8576040517f08c379a00000000000000000000000000000000000000000000000000000000081526004016103df90610818565b60405180910390fd5b600360008154809291906103fb906109ea565b91905055506040518060600160405280600354815260200182815260200160008152506001600060035481526020019081526020016000206000820151816000015560208201518160010190805190602001906104599291906104ae565b506040820151816002015590505050565b60008054906101000a900473ffffffffffffffffffffffffffffffffffffffff1681565b60026020528060005260406000206000915054906101000a900460ff1681565b8280546104ba906109b8565b90600052602060002090601f0160209004810192826104dc5760008555610523565b82601f106104f557805160ff1916838001178555610523565b82800160010185558215610523579182015b82811115610522578251825591602001919060010190610507565b5b5090506105309190610534565b5090565b5b8082111561054d576000816000905550600101610535565b5090565b600061056461055f846108e2565b6108b1565b90508281526020810184848401111561057c57600080fd5b610587848285610976565b509392505050565b60008135905061059e81610ad1565b92915050565b600082601f8301126105b557600080fd5b81356105c5848260208601610551565b91505092915050565b6000813590506105dd81610ae8565b92915050565b6000602082840312156105f557600080fd5b60006106038482850161058f565b91505092915050565b60006020828403121561061e57600080fd5b600082013567ffffffffffffffff81111561063857600080fd5b610644848285016105a4565b91505092915050565b60006020828403121561065f57600080fd5b600061066d848285016105ce565b91505092915050565b61067f8161092e565b82525050565b61068e81610940565b82525050565b600061069f82610912565b6106a9818561091d565b93506106b9818560208601610985565b6106c281610ac0565b840191505092915050565b60006106da60178361091d565b91507f596f75206861766520616c726561647920766f7465642e0000000000000000006000830152602082019050919050565b600061071a60298361091d565b91507f4f6e6c7920746865206f776e65722063616e20706572666f726d20746869732060008301527f6f7065726174696f6e00000000000000000000000000000000000000000000006020830152604082019050919050565b600061078060158361091d565b91507f496e76616c69642063616e6469646174652049442e00000000000000000000006000830152602082019050919050565b6107bc8161096c565b82525050565b60006020820190506107d76000830184610676565b92915050565b60006020820190506107f26000830184610685565b92915050565b60006020820190508181036000830152610811816106cd565b9050919050565b600060208201905081810360008301526108318161070d565b9050919050565b6000602082019050818103600083015261085181610773565b9050919050565b600060208201905061086d60008301846107b3565b92915050565b600060608201905061088860008301866107b3565b818103602083015261089a8185610694565b90506108a960408301846107b3565b949350505050565b6000604051905081810181811067ffffffffffffffff821117156108d8576108d7610a91565b5b8060405250919050565b600067ffffffffffffffff8211156108fd576108fc610a91565b5b601f19601f8301169050602081019050919050565b600081519050919050565b600082825260208201905092915050565b60006109398261094c565b9050919050565b60008115159050919050565b600073ffffffffffffffffffffffffffffffffffffffff82169050919050565b6000819050919050565b82818337600083830152505050565b60005b838110156109a3578082015181840152602081019050610988565b838111156109b2576000848401525b50505050565b600060028204905060018216806109d057607f821691505b602082108114156109e4576109e3610a62565b5b50919050565b60006109f58261096c565b91507fffffffffffffffffffffffffffffffffffffffffffffffffffffffffffffffff821415610a2857610a27610a33565b5b600182019050919050565b7f4e487b7100000000000000000000000000000000000000000000000000000000600052601160045260246000fd5b7f4e487b7100000000000000000000000000000000000000000000000000000000600052602260045260246000fd5b7f4e487b7100000000000000000000000000000000000000000000000000000000600052604160045260246000fd5b6000601f19601f8301169050919050565b610ada8161092e565b8114610ae557600080fd5b50565b610af18161096c565b8114610afc57600080fd5b5056fea2646970667358221220e0b309b579c9444ed65be1ddbf5290c20a452a2961431e567cbcec37480e0a3564736f6c63430008000033",
  "immutableReferences": {},
  "source": "// SPDX-License-Identifier: MIT\r\npragma solidity >=0.4.22 <0.9.0;\r\n\r\n\r\ncontract VotingSystem {\r\n    address public owner;\r\n    \r\n    // Estrutura para representar um candidato (Bloco)\r\n    struct Candidate {\r\n        uint id;\r\n        string name;\r\n        uint voteCount;\r\n    }\r\n\r\n    // Mapeamento para guardar os candidatos\r\n    mapping(uint => Candidate) public candidates;\r\n\r\n    // Mapeamento para verificar se o endereo da carteira j votou \r\n    mapping(address => bool) public voters;\r\n\r\n    // Numero de candidatos\r\n    uint public candidatesCount;\r\n\r\n    modifier onlyOwner() {\r\n        require(msg.sender == owner, \"Only the owner can perform this operation\");\r\n        _;\r\n    }\t\r\n\t//Definir o criador do contrato como o proprietrio (owner).\r\n    constructor() public {\r\n        owner = msg.sender;\r\n        addCandidate(\"Candidate 1\");\r\n        addCandidate(\"Candidate 2\");\r\n    }\r\n\r\n\r\n    // Funo para adicionarum candidato\r\n    function addCandidate(string memory _name) public onlyOwner {\r\n        candidatesCount++;\r\n        candidates[candidatesCount] = Candidate(candidatesCount, _name, 0);\r\n    }\r\n\r\n    // Funo para votar verificando se esta ainda no votou\r\n    function vote(uint _candidateId) public {\r\n        require(!voters[msg.sender], \"You have already voted.\");\r\n        require(_candidateId > 0 && _candidateId <= candidatesCount, \"Invalid candidate ID.\");\r\n\r\n        voters[msg.sender] = true;\r\n        candidates[_candidateId].voteCount++;\r\n    }\r\n    \r\n}\r\n",
  "sourcePath": "C:\\Users\\Tiago Pereira\\Desktop\\IPL\\CPD\\ProjetoInd\\blockchain\\contracts\\VotingSystem.sol",
  "compiler": {
    "name": "solc",
    "version": "0.8.0+commit.c7dfd78e.Emscripten.clang"
  },
  "schemaVersion": "3.4.16",
  "updatedAt": "2023-11-16T15:42:13.879Z",
  "networkType": "ethereum",
  "devdoc": {
    "kind": "dev",
    "methods": {},
    "version": 1
  },
  "userdoc": {
    "kind": "user",
    "methods": {},
    "version": 1
  }
}