{
  "contractName": "VotingSystem",
  "abi": [
    {
      "inputs": [],
      "stateMutability": "nonpayable",
      "type": "constructor"
    },
    {
      "inputs": [
        {
          "internalType": "uint256",
          "name": "",
          "type": "uint256"
        }
      ],
      "name": "candidates",
      "outputs": [
        {
          "internalType": "uint256",
          "name": "id",
          "type": "uint256"
        },
        {
          "internalType": "string",
          "name": "name",
          "type": "string"
        },
        {
          "internalType": "uint256",
          "name": "voteCount",
          "type": "uint256"
        }
      ],
      "stateMutability": "view",
      "type": "function",
      "constant": true
    },
    {
      "inputs": [],
      "name": "candidatesCount",
      "outputs": [
        {
          "internalType": "uint256",
          "name": "",
          "type": "uint256"
        }
      ],
      "stateMutability": "view",
      "type": "function",
      "constant": true
    },
    {
      "inputs": [],
      "name": "deployedContract",
      "outputs": [
        {
          "internalType": "address",
          "name": "",
          "type": "address"
        }
      ],
      "stateMutability": "view",
      "type": "function",
      "constant": true
    },
    {
      "inputs": [],
      "name": "isContractDeployed",
      "outputs": [
        {
          "internalType": "bool",
          "name": "",
          "type": "bool"
        }
      ],
      "stateMutability": "view",
      "type": "function",
      "constant": true
    },
    {
      "inputs": [],
      "name": "newContractAddress",
      "outputs": [
        {
          "internalType": "address",
          "name": "",
          "type": "address"
        }
      ],
      "stateMutability": "view",
      "type": "function",
      "constant": true
    },
    {
      "inputs": [],
      "name": "owner",
      "outputs": [
        {
          "internalType": "address",
          "name": "",
          "type": "address"
        }
      ],
      "stateMutability": "view",
      "type": "function",
      "constant": true
    },
    {
      "inputs": [
        {
          "internalType": "address",
          "name": "",
          "type": "address"
        }
      ],
      "name": "voters",
      "outputs": [
        {
          "internalType": "bool",
          "name": "",
          "type": "bool"
        }
      ],
      "stateMutability": "view",
      "type": "function",
      "constant": true
    },
    {
      "inputs": [
        {
          "internalType": "string",
          "name": "_name",
          "type": "string"
        }
      ],
      "name": "addCandidate",
      "outputs": [],
      "stateMutability": "nonpayable",
      "type": "function"
    },
    {
      "inputs": [
        {
          "internalType": "uint256",
          "name": "_candidateId",
          "type": "uint256"
        }
      ],
      "name": "vote",
      "outputs": [],
      "stateMutability": "nonpayable",
      "type": "function"
    }
  ],
  "bytecode": "0x60806040523480156200001157600080fd5b50336000806101000a81548173ffffffffffffffffffffffffffffffffffffffff021916908373ffffffffffffffffffffffffffffffffffffffff1602179055506000600160146101000a81548160ff021916908315150217905550620000b36040518060400160405280600b81526020017f43616e6469646174652031000000000000000000000000000000000000000000815250620000ff60201b60201c565b620000f96040518060400160405280600b81526020017f43616e6469646174652032000000000000000000000000000000000000000000815250620000ff60201b60201c565b6200044d565b60008054906101000a900473ffffffffffffffffffffffffffffffffffffffff1673ffffffffffffffffffffffffffffffffffffffff163373ffffffffffffffffffffffffffffffffffffffff161462000190576040517f08c379a000000000000000000000000000000000000000000000000000000000815260040162000187906200032e565b60405180910390fd5b60056000815480929190620001a590620003a1565b91905055506040518060600160405280600554815260200182815260200160008152506003600060055481526020019081526020016000206000820151816000015560208201518160010190805190602001906200020592919062000216565b506040820151816002015590505050565b82805462000224906200036b565b90600052602060002090601f01602090048101928262000248576000855562000294565b82601f106200026357805160ff191683800117855562000294565b8280016001018555821562000294579182015b828111156200029357825182559160200191906001019062000276565b5b509050620002a39190620002a7565b5090565b5b80821115620002c2576000816000905550600101620002a8565b5090565b6000620002d560298362000350565b91507f4f6e6c7920746865206f776e65722063616e20706572666f726d20746869732060008301527f6f7065726174696f6e00000000000000000000000000000000000000000000006020830152604082019050919050565b600060208201905081810360008301526200034981620002c6565b9050919050565b600082825260208201905092915050565b6000819050919050565b600060028204905060018216806200038457607f821691505b602082108114156200039b576200039a6200041e565b5b50919050565b6000620003ae8262000361565b91507fffffffffffffffffffffffffffffffffffffffffffffffffffffffffffffffff821415620003e457620003e3620003ef565b5b600182019050919050565b7f4e487b7100000000000000000000000000000000000000000000000000000000600052601160045260246000fd5b7f4e487b7100000000000000000000000000000000000000000000000000000000600052602260045260246000fd5b610c1f806200045d6000396000f3fe608060405234801561001057600080fd5b50600436106100935760003560e01c80636af04a57116100665780636af04a57146101205780638da5cb5b1461013e578063a3ec138d1461015c578063ae242cdf1461018c578063bf436233146101aa57610093565b80630121b93f146100985780632d35a8a2146100b45780633477ee2e146100d2578063462e91ec14610104575b600080fd5b6100b260048036038101906100ad9190610737565b6101c8565b005b6100bc61032d565b6040516100c99190610942565b60405180910390f35b6100ec60048036038101906100e79190610737565b610333565b6040516100fb9392919061095d565b60405180910390f35b61011e600480360381019061011991906106f6565b6103e5565b005b6101286104f5565b60405161013591906108ac565b60405180910390f35b61014661051b565b60405161015391906108ac565b60405180910390f35b610176600480360381019061017191906106cd565b61053f565b60405161018391906108c7565b60405180910390f35b61019461055f565b6040516101a191906108ac565b60405180910390f35b6101b2610585565b6040516101bf91906108c7565b60405180910390f35b600460003373ffffffffffffffffffffffffffffffffffffffff1673ffffffffffffffffffffffffffffffffffffffff16815260200190815260200160002060009054906101000a900460ff1615610255576040517f08c379a000000000000000000000000000000000000000000000000000000000815260040161024c906108e2565b60405180910390fd5b60008111801561026757506005548111155b6102a6576040517f08c379a000000000000000000000000000000000000000000000000000000000815260040161029d90610922565b60405180910390fd5b6001600460003373ffffffffffffffffffffffffffffffffffffffff1673ffffffffffffffffffffffffffffffffffffffff16815260200190815260200160002060006101000a81548160ff02191690831515021790555060036000828152602001908152602001600020600201600081548092919061032590610ad4565b919050555050565b60055481565b600360205280600052604060002060009150905080600001549080600101805461035c90610aa2565b80601f016020809104026020016040519081016040528092919081815260200182805461038890610aa2565b80156103d55780601f106103aa576101008083540402835291602001916103d5565b820191906000526020600020905b8154815290600101906020018083116103b857829003601f168201915b5050505050908060020154905083565b60008054906101000a900473ffffffffffffffffffffffffffffffffffffffff1673ffffffffffffffffffffffffffffffffffffffff163373ffffffffffffffffffffffffffffffffffffffff1614610473576040517f08c379a000000000000000000000000000000000000000000000000000000000815260040161046a90610902565b60405180910390fd5b6005600081548092919061048690610ad4565b91905055506040518060600160405280600554815260200182815260200160008152506003600060055481526020019081526020016000206000820151816000015560208201518160010190805190602001906104e4929190610598565b506040820151816002015590505050565b600160009054906101000a900473ffffffffffffffffffffffffffffffffffffffff1681565b60008054906101000a900473ffffffffffffffffffffffffffffffffffffffff1681565b60046020528060005260406000206000915054906101000a900460ff1681565b600260009054906101000a900473ffffffffffffffffffffffffffffffffffffffff1681565b600160149054906101000a900460ff1681565b8280546105a490610aa2565b90600052602060002090601f0160209004810192826105c6576000855561060d565b82601f106105df57805160ff191683800117855561060d565b8280016001018555821561060d579182015b8281111561060c5782518255916020019190600101906105f1565b5b50905061061a919061061e565b5090565b5b8082111561063757600081600090555060010161061f565b5090565b600061064e610649846109cc565b61099b565b90508281526020810184848401111561066657600080fd5b610671848285610a60565b509392505050565b60008135905061068881610bbb565b92915050565b600082601f83011261069f57600080fd5b81356106af84826020860161063b565b91505092915050565b6000813590506106c781610bd2565b92915050565b6000602082840312156106df57600080fd5b60006106ed84828501610679565b91505092915050565b60006020828403121561070857600080fd5b600082013567ffffffffffffffff81111561072257600080fd5b61072e8482850161068e565b91505092915050565b60006020828403121561074957600080fd5b6000610757848285016106b8565b91505092915050565b61076981610a18565b82525050565b61077881610a2a565b82525050565b6000610789826109fc565b6107938185610a07565b93506107a3818560208601610a6f565b6107ac81610baa565b840191505092915050565b60006107c4601783610a07565b91507f596f75206861766520616c726561647920766f7465642e0000000000000000006000830152602082019050919050565b6000610804602983610a07565b91507f4f6e6c7920746865206f776e65722063616e20706572666f726d20746869732060008301527f6f7065726174696f6e00000000000000000000000000000000000000000000006020830152604082019050919050565b600061086a601583610a07565b91507f496e76616c69642063616e6469646174652049442e00000000000000000000006000830152602082019050919050565b6108a681610a56565b82525050565b60006020820190506108c16000830184610760565b92915050565b60006020820190506108dc600083018461076f565b92915050565b600060208201905081810360008301526108fb816107b7565b9050919050565b6000602082019050818103600083015261091b816107f7565b9050919050565b6000602082019050818103600083015261093b8161085d565b9050919050565b6000602082019050610957600083018461089d565b92915050565b6000606082019050610972600083018661089d565b8181036020830152610984818561077e565b9050610993604083018461089d565b949350505050565b6000604051905081810181811067ffffffffffffffff821117156109c2576109c1610b7b565b5b8060405250919050565b600067ffffffffffffffff8211156109e7576109e6610b7b565b5b601f19601f8301169050602081019050919050565b600081519050919050565b600082825260208201905092915050565b6000610a2382610a36565b9050919050565b60008115159050919050565b600073ffffffffffffffffffffffffffffffffffffffff82169050919050565b6000819050919050565b82818337600083830152505050565b60005b83811015610a8d578082015181840152602081019050610a72565b83811115610a9c576000848401525b50505050565b60006002820490506001821680610aba57607f821691505b60208210811415610ace57610acd610b4c565b5b50919050565b6000610adf82610a56565b91507fffffffffffffffffffffffffffffffffffffffffffffffffffffffffffffffff821415610b1257610b11610b1d565b5b600182019050919050565b7f4e487b7100000000000000000000000000000000000000000000000000000000600052601160045260246000fd5b7f4e487b7100000000000000000000000000000000000000000000000000000000600052602260045260246000fd5b7f4e487b7100000000000000000000000000000000000000000000000000000000600052604160045260246000fd5b6000601f19601f8301169050919050565b610bc481610a18565b8114610bcf57600080fd5b50565b610bdb81610a56565b8114610be657600080fd5b5056fea26469706673582212200bfcf18575cab2965f712b239a4dd1838660eb95a18e98f0571ebbe0f0eda3ff64736f6c63430008000033",
  "immutableReferences": {},
  "source": "// SPDX-License-Identifier: MIT\r\npragma solidity ^0.8.0;\r\n\r\ncontract VotingSystem {\r\n    address public owner;\r\n    address public newContractAddress; // Store the address of the new contract\r\n    bool public isContractDeployed; // Flag to track if a new contract is deployed\r\n    address public deployedContract; // Store the address of the deployed contract\r\n    // Structure to represent a candidate\r\n    struct Candidate {\r\n        uint id;\r\n        string name;\r\n        uint voteCount;\r\n    }\r\n\r\n    // Mapping to store the candidates\r\n    mapping(uint => Candidate) public candidates;\r\n\r\n    // Mapping to check if an address has already voted\r\n    mapping(address => bool) public voters;\r\n\r\n    // Number of candidates\r\n    uint public candidatesCount;\r\n\r\n    modifier onlyOwner() {\r\n        require(msg.sender == owner, \"Only the owner can perform this operation\");\r\n        _;\r\n    }\r\n\r\n    constructor() {\r\n        owner = msg.sender;\r\n        isContractDeployed = false;\r\n        addCandidate(\"Candidate 1\");\r\n        addCandidate(\"Candidate 2\");\r\n    }\r\n\r\n    // Function to add a new candidate\r\n    function addCandidate(string memory _name) public onlyOwner {\r\n        candidatesCount++;\r\n        candidates[candidatesCount] = Candidate(candidatesCount, _name, 0);\r\n    }\r\n\r\n    // Function to cast a vote\r\n    function vote(uint _candidateId) public {\r\n        require(!voters[msg.sender], \"You have already voted.\");\r\n        require(_candidateId > 0 && _candidateId <= candidatesCount, \"Invalid candidate ID.\");\r\n\r\n        voters[msg.sender] = true;\r\n        candidates[_candidateId].voteCount++;\r\n    }\r\n       \r\n \r\n\r\n\r\n}\r\n",
  "sourcePath": "C:\\Users\\Tiago Pereira\\Desktop\\IPL\\CPD\\ProjetoInd\\blockchain\\contracts\\VotingSystem.sol",
  "compiler": {
    "name": "solc",
    "version": "0.8.0+commit.c7dfd78e.Emscripten.clang"
  },
  "schemaVersion": "3.4.16",
  "updatedAt": "2023-11-09T19:30:30.700Z",
  "networkType": "ethereum",
  "devdoc": {
    "kind": "dev",
    "methods": {},
    "version": 1
  },
  "userdoc": {
    "kind": "user",
    "methods": {},
    "version": 1
  }
}